:1070000055C000006EC000006CC000006AC00000E7
:1070100068C0000066C0000064C0000062C00000DC
:1070200060C000005EC00000C2C400005AC0000082
:1070300058C0000056C0000054C0000052C00000FC
:1070400050C0000092C000004CC000004AC00000C8
:1070500048C0000046C0000044C0000042C000001C
:1070600040C000003EC000003CC000003AC000002C
:1070700038C0000036C0000034C0000032C000003C
:1070800030C000002EC000002CC000002AC000004C
:1070900028C0000026C0000024C0000022C000005C
:1070A00020C000001EC000001CC0000011241FBE34
:1070B000CFEFDAE0DEBFCDBF11E0A0E0B1E0E4E762
:1070C000FEE702C005900D92A23BB107D9F721E07F
:1070D000A2EBB1E001C01D92AB3CB207E1F716D3C1
:1070E000BDC68ECF84E08093E9008091E80085FFE3
:1070F00003C08091F1000CC08091E8008B778093F1
:10710000E8008091E80082FDF0CF8EB38111F9CFC5
:10711000089593E09093E9009091E80095FF0AC0EC
:107120008093F1005D9884E690E09093B90180939C
:10713000B80108959091E8009E779093E8009091AF
:10714000E80090FDEDCF9EB39111F9CF0895F8942A
:1071500010926F001092810081E085BF15BE4798A4
:107160005D9A289A0C94000008951F921FB61F92F2
:1071700011242F938F939F93EF93FF931092850089
:10718000109284008091B8019091B901009741F06C
:1071900001979093B9018093B801892B09F45D9A06
:1071A0008091B6019091B701009741F001979093BB
:1071B000B7018093B601892B09F4289A8091B20116
:1071C0009091B30101969093B3018093B201F0E0E6
:1071D000E0E085919491019649F08091B4019091FD
:1071E000B50101969093B5018093B401FF91EF91A1
:1071F0009F918F912F911F901FBE1F90189542E075
:1072000061EC82E051D342E161E883E04DD342E199
:1072100060E884E049C38091C301982F9F77913241
:10722000B9F49091C4019032A1F0913289F4813A7D
:1072300079F48091E800877F8093E80067E070E050
:1072400082E091E062D48091E8008B778093E8003F
:1072500008958132E9F78091E800877F8093E80004
:1072600067E070E082E091E0A4D48091E8008E773E
:10727000EDCF4F925F926F927F928F929F92AF92DB
:10728000BF92CF92DF92EF92FF920F931F93CF9313
:10729000DF9384E08093E9008091E80082FF25C2BB
:1072A000289884E690E09093B7018093B6011ADFA6
:1072B000C82F853451F58CEA9DE09093B5018093F9
:1072C000B40107B600FCFDCFF999FECF81E18093B0
:1072D0005700E8958DE01DDF83E08093E9009091F1
:1072E000E8008091E8008E778093E80095FFF0C178
:1072F0008091E80080FFF6C184E08093E9008091EE
:10730000E8008B778093E800F0C1843511F4EADE61
:10731000E1CF8C34F9F28035E9F2843721F484E44A
:10732000F8DE80E0D8CF89E5C136A9F2C134D1F4C6
:10733000D9DEC82FD7DE2C2F30E0322F2227330F93
:1073400090E0880F991F822B932B092E000CAA0B1B
:10735000BB0B8093BB019093BC01A093BD01B09384
:10736000BE01B8CF83E5C03709F4B5CFC33549F4C2
:10737000C9EAD1E08991CDDE21E0C03BD207D1F747
:10738000ABCFC63521F481E3C4DE80E3A4CFC3379D
:1073900031F487E8BEDE85E9BCDE8EE19CCFC536E0
:1073A000B9F4F0E0E0E083E095E080935700E895E1
:1073B00007B600FCFDCF90935700E89507B600FC98
:1073C000FDCFE058FF4FE11520E7F20771F782CFBC
:1073D00089E0E1E0F0E0C23779F089E0F0E0E0E058
:1073E000C63451F089E0E3E0F0E0CE3429F0C13555
:1073F00039F489E0E2E0F0E08093570084916BCFAC
:10740000C23631F489E585DE80E083DE80E863CF33
:10741000C23419F0C73609F0CBC01092B5011092F2
:10742000B40160DE182F5EDE082F5CDED82F8BEBF8
:107430008D0F823010F08FE34ECF10926F00C73661
:1074400009F045C081E180935700E895C0E0BB2476
:10745000B3940150110920F482E080936F003CCF77
:10746000C090BB01D090BC01E090BD01F090BE0186
:10747000D634B9F4EC2FF0E0EC29FD29849149DEF3
:10748000CC2369F082E0C80ED11CE11CF11CC09233
:10749000BB01D092BC01E092BD01F092BE01CB25B0
:1074A000D8CFD701C601B695A79597958795C0D433
:1074B00030DEE2E0CE0ED11CE11CF11CC092BB011B
:1074C000D092BC01E092BD01F092BE01C2CF4090CB
:1074D000BB015090BC016090BD017090BE01D634DC
:1074E00041F483E0F20180935700E89507B600FC71
:1074F000FDCFC0E0F12CEE24E39424C0D63409F093
:1075000034C0FF2079F18090BB019090BC01A09025
:10751000BD01B090BE01E6DD982F8C2FF4010C0167
:10752000E0925700E8951124F2E08F0E911CA11C07
:10753000B11C8092BB019092BC01A092BD01B0929F
:10754000BE01FE2401501109C8F6D63441F485E08D
:10755000F20180935700E89507B600FCFDCF8DE05F
:10756000D8DD7ACFBFDDC82FECCFBCDD682F80918E
:10757000BB019091BC01A091BD01B091BE01B69537
:10758000A795979587955CD48091BB019091BC019C
:10759000A091BD01B091BE010296A11DB11D8093C5
:1075A000BB019093BC01A093BD01B093BE01CACFB3
:1075B000C33471F4C091BB01D091BC0193DD90E064
:1075C00021E0FE010C0120935700E895112482CEA2
:1075D000C33601F5C090BB01D090BC01E090BD0165
:1075E000F090BE017FDDF601E16090E021E00C014A
:1075F00020935700E8951124F2E0CF0ED11CE11C36
:10760000F11CC092BB01D092BC01E092BD01F0928E
:10761000BE0160CECD3661F4E091BB01F091BC01BA
:1076200085E080935700E89507B600FCFDCF52CE69
:10763000C23551F4E091BB01F091BC01C591D491E8
:107640008D2F67DD8C2F47CEC434D9F44BDD682FE6
:107650008091BB019091BC01A091BD01B091BE0190
:10766000B695A79597958795EBD38091BB0190919F
:10767000BC01A091BD01B091BE010296A11DB11D3A
:1076800068CEC436F1F4C090BB01D090BC01E0904C
:10769000BD01F090BE01D701C601B695A79597959B
:1076A0008795C6D336DD22E0C20ED11CE11CF11C49
:1076B000C092BB01D092BC01E092BD01F092BE012C
:1076C0000BCECB3109F408CEB6CE8EB3882369F049
:1076D0008091E80080FFF9CF8091E8008E77809359
:1076E000E80006CE8EB3811103CEDF91CF911F91BA
:1076F0000F91FF90EF90DF90CF90BF90AF909F9051
:107700008F907F906F905F904F90089590910008B8
:107710001092000884B714BE0FB6F894A895209173
:107720006000286120936000109260000FBE40E866
:1077300020E00FB6F89440936100209361000FBEE3
:1077400021E025BF32E035BF3F9A209A559A4093F9
:1077500061001092610047985D9A289A1092890002
:107760004AEF4093880030936F0033E030938100FC
:10777000F0E0E0E0459154914F3F5F4F11F02093CE
:10778000BA0181FF32C020910001291771F12093C5
:107790000008789480910101882339F02091B2018A
:1077A0003091B30128373140B8F310920101F894B9
:1077B0001092000881E0809301018091BA0181114B
:1077C000C6DCDDD078941092B5011092B401CEEFF2
:1077D00080910101811116C08091E0008160809349
:1077E000E000B5DC90E080E0089580FF04C02091C7
:1077F000BA012111E5CF83FFE4CF80910001891305
:10780000DCCFDFCF36DDFDD28091B4019091B501A0
:10781000813A9F4010F0109201018091BF01909138
:10782000C00101969093C0018093BF01292F97FF5B
:1078300002C02C2F291B220F281710F44798C8CFFD
:10784000479AC6CFFA01292F30E022303105C1F026
:107850002330310551F02130310509F582E190E006
:1078600027E931E0318320830895882371F0813046
:1078700089F08230A1F48AE290E029E031E0F2CF91
:107880008EE390E029E531E0EDCF84E090E025E55E
:1078900031E0E8CF8EE190E025E331E0E3CF90E006
:1078A00080E030E020E0DECF8093E900EBEEF0E016
:1078B000808181608083EDEEF0E010826093EC00C7
:1078C00040838091EE00881F8827881F089580914B
:1078D000C30187FF11C08091E80082FF06C080913C
:1078E000E8008B778093E80003C08EB38111F3CF5B
:1078F00008958EB38823E1F38091E80080FFF9CFEB
:107900008091E8008E77EECF0F931F93CF93DF9394
:1079100041D048D0C8EDD0E088818F7788838881B6
:107920008068888388818F7D888319BC1EBA1092F5
:10793000C10100EE10E0F80180818B7F8083888197
:107940008160888342E060E080E0AEDFE1EEF0E05D
:1079500080818E7F8083E2EEF0E080818160808391
:10796000808188608083F80180818E7F8083888118
:1079700080618883DF91CF911F910F910895E7ED8A
:10798000F0E08081816080838AE482BF81E080931F
:10799000C201BACFE8EDF0E080818E7F8083109243
:1079A000E20008951092DA001092E10008951F920B
:1079B0000F920FB60F9211242F933F934F935F9323
:1079C0006F937F938F939F93AF93BF93EF93FF93A7
:1079D0008091DA0080FF16C08091D80080FF12C02D
:1079E0008091DA008E7F8093DA008091D90019BCF3
:1079F00080FF4BC082E089BD09B400FEFDCF81E06D
:107A00008EBBFED18091E10080FF17C08091E20023
:107A100080FF13C08091E2008E7F8093E20080910E
:107A2000E20080618093E2008091D80080628093C0
:107A3000D80019BC85E08EBBE3D18091E10084FFC2
:107A40002EC08091E20084FF2AC019BC82E089BD6B
:107A500009B400FEFDCF8091D8008F7D8093D800BF
:107A60008091E1008F7E8093E1008091E2008F7E23
:107A70008093E2008091E20081608093E200809137
:107A8000C101882329F084E008C01EBAB9D1BACF59
:107A90008091E30087FDF7CF81E08EBBB1D180916B
:107AA000E10083FF21C08091E20083FF1DC080912F
:107AB000E100877F8093E10082E08EBB1092C101DC
:107AC0008091E1008E7F8093E1008091E2008E7FC3
:107AD0008093E2008091E20080618093E20042E0C6
:107AE00060E080E0E1DE8CD1FF91EF91BF91AF913A
:107AF0009F918F917F916F915F914F913F912F91C6
:107B00000F900FBE0F901F901895FC01CB01209194
:107B1000C9013091CA012617370790F0009729F460
:107B20002091E8002E772093E80040E0009751F480
:107B3000411108C08091E80082FF30C080E00895C4
:107B4000C901F3CF2EB3222391F1253061F12091A9
:107B5000E80023FD2AC02091E80022FDEBCF209110
:107B6000E80020FFE3CF3091F3002091F20000976E
:107B700019F02830310558F041E02830310509F07E
:107B800040E02091E8002E772093E800CFCF41918C
:107B90004093F10001972F5F3F4FE9CF8EB38823C9
:107BA00031F0853039F683E0089581E0089582E070
:107BB0000895FC01CB01009729F42091E8002B7770
:107BC0002093E800009731F48091E80080FF1BC00B
:107BD00080E008952EB32223F9F02530C9F02091DA
:107BE000E80023FD17C02091E80022FFEBCF309181
:107BF000F3002091F200232B01F32091F100219357
:107C00000197A9F7DACF8EB3882331F08530E1F6FA
:107C100083E0089581E0089582E008950F931F9313
:107C2000CF93DF9300D0CDB7DEB783EC91E0FC01BA
:107C300001962091F100208321E08B3C9207B9F757
:107C4000EADA8091E80083FF29C08091C301909116
:107C5000C4019A3018F5E92FF0E0E05DF04CE2C085
:107C60008238E1F48091C70187708093E9008091A8
:107C7000EB0085FB882780F91092E9009091E800DD
:107C8000977F9093E8008093F1001092F10080912B
:107C9000E8008E77B1C0823009F492C08091E8008C
:107CA00083FF0AC08091EB0080628093EB0080919B
:107CB000E800877F8093E8000F900F90DF91CF91CD
:107CC0001F910F9108959091EB0090619093EB00BC
:107CD00021E030E001C0220F8A95EAF72093EA0004
:107CE0001092EA008091EB0088607FC08111D6CFAE
:107CF0001091C5011F770FB7F8948091E800877F36
:107D00008093E800E4DD8091E80080FFFCCF809163
:107D1000E3008078812B8093E30080688093E30008
:107D200082E0111183E08EBB0FBFB8CF8058823044
:107D300008F0B4CFAE014F5F5F4F6091C7018091F3
:107D4000C5019091C6017EDDBC01892B09F4A6CF47
:107D50008091E800877F8093E80089819A81D5DE51
:107D60008091E8008B778093E80098CF803809F005
:107D700095CF8091E800877F8093E8008091C101D2
:107D80008093F10084CF811189CF9091C501923009
:107D900008F084CF8091E800877F8093E80090937B
:107DA000C10195DD8091C101882311F084E005C0F7
:107DB0008091E30087FDFACF81E08EBB20DA6ECFA1
:107DC0008091C501811113C08091C701877009F4AA
:107DD00065CF8093E9002091EB0020FF08C093302D
:107DE00009F071CF8091EB0080628093EB001092DC
:107DF000E9008091E800877F8093E80068DD4ECF3E
:107E00000895CF938EB3882359F0C091E900C770CD
:107E10001092E9008091E80083FD00DFC093E90043
:107E2000CF910895EE0FFF1F0590F491E02D099476
:107E3000F999FECF92BD81BDF89A992780B5089532
:107E4000262FF999FECF1FBA92BD81BD20BD0FB676
:107E5000F894FA9AF99A0FBE01960895F894FFCF14
:107E6000303E4B3E4E3E4B3E4E3E763E963E4E3E66
:047E7000B63EC33E19
:107E74007701000000000000082A034D004300536E
:107E840000200045006C0065006300740072006F00
:107E9400006E0069006300730020002000200020B1
:107EA40000200000001E035300540045004D002034
:107EB40000440075002000520044004300310030AB
:107EC40000320000000403090409023E000201001C
:107ED400803209040000010202010005240010019F
:107EE400042402040524060001070582030800FF98
:107EF40009040100020A0000000705040210000141
:107F0400070583021000011201100102000008D0CD
:107F1400165D090100020100014341544552494ED6
:027F240041001A
:040000030000700089
:00000001FF
